:1000000003308A00A52B0000FF00030E8301A1002E
:100010000A08A0008A010408A2007708A300780853
:10002000A4007908A5007A08A60003170D08031399
:10003000A70003170F080313A80003170C080313E6
:10004000A90003170E080313AA00831383128B1E43
:100050002B280B194C28220884002308F7002408B9
:10006000F8002508F9002608FA00270803178D0074
:100070000313280803178F000313290803178C00A4
:1000800003132A0803178E00031320088A00210E89
:100090008300FF0E7F0E09008A110A124F280630D6
:1000A00081000B118A110A122B28A0123426751018
:1000B00020100A008E30F7003808F8003708F900E1
:1000C000FA01F808031D6E287908F800F9010830D4
:1000D000F702F808031D6E28F70176280310F81BB5
:1000E0007528F90DF80DF7036E28F8138A110A1216
:1000F000FC2B44080319E928CC0048080319E92817
:10010000CC0703188A287F30CC02031CE928031986
:10011000E9288E288130CC070318E9284C08F7001D
:10012000F801F901FA014508D000D0174608CF00C0
:100130004708CE001830CC00CD014E1CB7284B0824
:10014000FA07031CA928F90A031DA928F80A0319AC
:10015000CD174A08F907031CB028F80A0319CD1770
:100160004908C600C6174608F8070318CD17CD0D75
:10017000F80CF90CFA0CD00CCF0CCE0C0310CC0BF5
:100180009C280130F7070318E928F81BCE28D00D6A
:10019000FA0DF90DF80DF7030319E928D01FDF2830
:1001A000FA0A031DDF28F90A031DDF28F80A031DD8
:1001B000DF28F80CF90CFA0CF70A0319E9284508AE
:1001C000CD004908CD06CD1FE728F817ED28F81314
:1001D000ED28F701F801F901FA0108003B080319BD
:1001E000B329C7003F080319B329C702031CFD2820
:1001F0007F30C7070318B32903298130C702031CC6
:10020000B3290319B3294708F700F801F901FA01E6
:10021000C6013C08C500C5173D08C4003E08C30020
:100220001930C7004208C302031826290130C4024E
:1002300003182629C50203182629C60203182629F1
:10024000C60AC50AC40A4208C30758294108C4029D
:10025000031841290130C50203184129C6020318B9
:100260004129C60AC50A4108C4074208C307031C3E
:100270005829C40A031D5829C50A031D5829C60A4E
:10028000582940088038C502031857290130C60292
:1002900003185729C60A40088038C5074108C40713
:1002A000031C3529C50A031D3529C60A35297A14C8
:1002B000C70B5B2966290310C30DC40DC50DC60D00
:1002C0000310FA0DF90DF80DC80D1229481C6E29FE
:1002D0000310F80CF90CFA0CC80C7129F703031978
:1002E000B329C81B9A290310C30DC40DC50DC60D33
:1002F0004208C302031886290130C4020318862964
:10030000C50203188629C602031CA9294108C40294
:10031000031891290130C50203189129C602031C54
:10032000A92940088038C50203189A290130C6025D
:10033000031CA929FA0A031DA929F90A031DA929E1
:10034000F80A031DA929F70A0319B329F80CF90CB7
:10035000FA0C3C08C7004008C706C71FB129F817A8
:10036000B729F813B729F701F801F901FA018A1141
:100370000A12212CBF010408BE003F10831B3F144A
:10038000380EF038BA00BA07E23EBB00323EBD007C
:1003900038080F39BB07BB07BD07E93EBC00BC07E7
:1003A000BC07370E0F39BC07BD07BC0DBD0DBD091D
:1003B000BD0D37080F39BD07BA0D0730B9000A3037
:1003C000BD07BC03031CE029BC07BB03031CE429D5
:1003D000BB07BA03031CE829BA07B903031CEC29BD
:1003E00039308400831307303E053E1384073D30C7
:1003F000040203193E170008F700031D072A3E1BDD
:10040000072A3E1A0F2ABE19072A20300A2ABE15CB
:100410003E123030F70777080C1E0C2A9900840A28
:100420003E1FF7298A110A12342C0B08B8008B13CF
:10043000831603178C170C1400000000831203139B
:10044000B81B8B1703184D2A03170C087F390313A9
:10045000B80003170D080313B90003170F0803139F
:10046000BA0038080C1E322A9900390803178D008B
:1004700003133A0803178F0003130B08BB008B13F9
:10048000831603178C170C1400000000831203134B
:10049000BB1B8B17B70B4D2A6D2A03170C0D0E0DC6
:1004A0007F390313B80003170D080313B9000317AE
:1004B0000F080313BA0038080C1E5C2A990039088B
:1004C00003178D0003133A0803178F008D0A0319D1
:1004D0008F0A03100313B70B152A8A110A123E2C38
:1004E0008318752A4C3084008313F701F801F90151
:1004F000FA01CC01CD01CE01CF014B084A044904D9
:1005000048040319B32A2030D0000310C40DC50DD0
:10051000C60DC70DCC0DCD0DCE0DCF0D4B084F0226
:10052000031D9C2A4A084E02031D9C2A49084D02BD
:10053000031D9C2A48084C02031CAD2A4808CC0223
:100540004908031C490FCD024A08031C4A0FCE027A
:100550004B08031C4B0FCF020314F70DF80DF90DD8
:10056000FA0DD00B852A4C088000840A4D088000C3
:10057000840A4E088000840A4F088000080004089E
:10058000BC003B08BE000319DE2A3A08C700390840
:10059000C6003808C5003708C400CB01CA012030A6
:1005A000C9008230C80079207A08BA007908B900F9
:1005B0007808B8007708B700BE0BC52A3A08C7000C
:1005C0003908C6003808C5003708C4004408B63CDE
:1005D000C400FA014508C800C5170310C50CC60CB5
:1005E000C70CFA0CF90CF80CF70CC40BED2AC81F59
:1005F000042BF709F809F909FA09F70A0319F80AA7
:100600000319F90A0319FA0A7A08BA007908B90035
:100610007808B8007708B700BA1F1B2BBC03BC16BC
:10062000B709B809B909BA09B70A0319B80A031909
:10063000B90A0319BA0A3B30C3009A30C200CA3063
:10064000C100C0010A30BE003B080319BC0A831474
:100650003730840083133A08C7003908C6003808C9
:10066000C5003708C4004308CB004208CA0041084F
:10067000C9004008C80070227808F708031D532BF2
:100680003B0A3E020319532B3C080319552B0F3923
:100690003E0203194D2B0318892BBC1B892B3C1BD5
:1006A000552B2030842B2030BC05BC1E642BBC1283
:1006B0003B08031DBC037708BC002D300C1E5E2BCD
:1006C00099003C08F700BC013B083E02031D732B58
:1006D0007708BC002E300C1E6B2B99003C08F700ED
:1006E0002030BC0500303030BC1E842BBC123B08CF
:1006F000031DBC037708BC002D300C1E7D2B990018
:100700003C08F700BC013030F70777080C1E862B39
:10071000990083104308C7004208C6004108C5007D
:100720004008C400CB01CA01C9010A30C8007022C8
:100730007A08C3007908C2007808C1007708C000B1
:10074000BE0B272B8A110A124F2C03081F39830076
:10075000831603178711193003139900A6309800E8
:10076000903083129800831603170908C039890056
:1007700003131F129F120030031788008312870192
:100780008801890183130313AB01AC0183160108AF
:10079000C03981000630831281008B16C0308B0473
:1007A000831603170908C039890003131F129F120B
:1007B000013003178800831203131F179F17831636
:1007C0009F1783121F140030F8001F08C3397804E4
:1007D0009F000630F700F70BEB2B00009F149F18CB
:1007E000EF2B83161E088312B1001E08B2003208D8
:1007F000B8003108B7005A28C701C6012030C5002B
:100800008130C4007A08CB007908CA007808C90092
:100810007708C80079207A08BA007908B900780802
:10082000B8007708B7007A08BE007908BD007808DC
:10083000BC007708BB00C201C101C0018930BF0004
:10084000EE287A08B6007908B5007808B400770871
:10085000B30020300C1E2A2C99000130840032088D
:10086000B8003108B700BA29573003178D0000309F
:100870008F00031404300313B700152A20300C1E18
:100880003F2C9900433084003608BA003508B9007F
:100890003408B8003308B7000230BB00BF2A20304C
:1008A0000C1E502C990020300C1E542C99000D3039
:0A08B0000C1E582C9900EE2B63007B
:04400E00E120FF3F6F
:00000001FF
;PIC16F887
;CRC=D495  CREATED="08-mar.-22 15:34"
