:1000000003308A006F2B0000A012CC3A202B201066
:100010000A00A012311732337610A00600148E3079
:10002000F7002D08F8002C08F900FA01F808031D64
:1000300023287908F800F9010830F702F808031DB1
:100040002328F7012B280310F81B2A28F90DF80D97
:10005000F7032328F8138A110A12C42B390803194D
:100060009E28C1003D0803199E28C10703183F2898
:100070007F30C102031C9E2803199E28432881302B
:10008000C10703189E284108F700F801F901FA0199
:100090003A08C500C5173B08C4003C08C300183027
:1000A000C100C201431C6C284008FA07031C5E28EB
:1000B000F90A031D5E28F80A0319C2173F08F90759
:1000C000031C6528F80A0319C2173E08BB00BB17BA
:1000D0003B08F8070318C217C20DF80CF90CFA0C0C
:1000E000C50CC40CC30C0310C10B51280130F70719
:1000F00003189E28F81B8328C50DFA0DF90DF80D7D
:10010000F70303199E28C51F9428FA0A031D942893
:10011000F90A031D9428F80A031D9428F80CF90C19
:10012000FA0CF70A03199E283A08C2003E08C206D4
:10013000C21F9C28F817A228F813A228F701F8017B
:10014000F901FA010800300803196829BC003408D5
:1001500003196829BC02031CB2287F30BC070318AE
:100160006829B8288130BC02031C68290319682952
:100170003C08F700F801F901FA01BB013108BA00A7
:10018000BA173208B9003308B8001930BC00370874
:10019000B8020318DB280130B9020318DB28BA02C1
:1001A0000318DB28BB020318DB28BB0ABA0AB90A0A
:1001B0003708B8070D293608B9020318F6280130A8
:1001C000BA020318F628BB020318F628BB0ABA0ABB
:1001D0003608B9073708B807031C0D29B90A031DEB
:1001E0000D29BA0A031D0D29BB0A0D2935088038CF
:1001F000BA0203180C290130BB0203180C29BB0AF0
:1002000035088038BA073608B907031CEA28BA0A45
:10021000031DEA28BB0AEA287A14BC0B10291B2903
:100220000310B80DB90DBA0DBB0D0310FA0DF90D81
:10023000F80DBD0DC7283D1C23290310F80CF90C3F
:10024000FA0CBD0C2629F70303196829BD1B4F2999
:100250000310B80DB90DBA0DBB0D3708B80203185D
:100260003B290130B90203183B29BA0203183B2984
:10027000BB02031C5E293608B90203184629013067
:10028000BA0203184629BB02031C5E2935088038D0
:10029000BA0203184F290130BB02031C5E29FA0A77
:1002A000031D5E29F90A031D5E29F80A031D5E2954
:1002B000F70A03196829F80CF90CFA0C3108BC008C
:1002C0003508BC06BC1F6629F8176C29F8136C2981
:1002D000F701F801F901FA018A110A12EB2BB401B6
:1002E0000408B3003410831B34142D0EF038AF0013
:1002F000AF07E23EB000323EB2002D080F39B00722
:10030000B007B207E93EB100B107B1072C0E0F39B3
:10031000B107B207B10DB20DB209B20D2C080F39F9
:10032000B207AF0D0730AE000A30B207B103031CAD
:100330009529B107B003031C9929B007AF03031C2B
:100340009D29AF07AE03031CA1292E30840083131F
:10035000073033053313840732300402031933178F
:100360000008F700031DBC29331BBC29331AC4291C
:10037000B319BC292030BF29B31533123030F70729
:1003800077080C1EC1299900840A331FAC298A11F1
:100390000A12FE2B0B08AD008B13831603178C1764
:1003A0000C140000000083120313AD1B8B170318FD
:1003B000022A03170C087F390313AD0003170D0839
:1003C0000313AE0003170F080313AF002D080C1E14
:1003D000E72999002E0803178D0003132F08031730
:1003E0008F0003130B08B0008B13831603178C17B1
:1003F0000C140000000083120313B01B8B17AC0B0E
:10040000022A222A03170C0D0E0D7F390313AD00AB
:1004100003170D080313AE0003170F080313AF00F3
:100420002D080C1E112A99002E0803178D000313A6
:100430002F0803178F008D0A03198F0A0310031367
:10044000AC0BCA2908008318282A41308400831382
:10045000F701F801F901FA01C101C201C301C401A8
:1004600040083F043E043D040319662A2030C500BD
:100470000310B90DBA0DBB0DBC0DC10DC20DC30DDE
:10048000C40D40084402031D4F2A3F084302031DC8
:100490004F2A3E084202031D4F2A3D084102031C19
:1004A000602A3D08C1023E08031C3E0FC2023F08FD
:1004B000031C3F0FC3024008031C400FC402031477
:1004C000F70DF80DF90DFA0DC50B382A410880001B
:1004D000840A42088000840A43088000840A440891
:1004E000800008000408B1003008B3000319912A05
:1004F0002F08BC002E08BB002D08BA002C08B9003C
:10050000C001BF012030BE008230BD002E207A081D
:10051000AF007908AE007808AD007708AC00B30BE7
:10052000782A2F08BC002E08BB002D08BA002C0822
:10053000B9003908B63CB900FA013A08BD00BA174B
:100540000310BA0CBB0CBC0CFA0CF90CF80CF70C31
:10055000B90BA02ABD1FB72AF709F809F909FA094A
:10056000F70A0319F80A0319F90A0319FA0A7A08AB
:10057000AF007908AE007808AD007708AC00AF1F77
:10058000CE2AB103B116AC09AD09AE09AF09AC0A68
:100590000319AD0A0319AE0A0319AF0A3B30B800BC
:1005A0009A30B700CA30B600B5010A30B30030083F
:1005B0000319B10A83142C30840083132F08BC0064
:1005C0002E08BB002D08BA002C08B9003808C0005E
:1005D0003708BF003608BE003508BD002322780862
:1005E000F708031D062B300A33020319062B3108C6
:1005F0000319082B0F3933020319002B03183C2B66
:10060000B11B3C2B311B082B2030372B2030B10580
:10061000B11E172BB1123008031DB1037708B100CA
:100620002D300C1E112B99003108F700B101300854
:100630003302031D262B7708B1002E300C1E1E2B13
:1006400099003108F7002030B10500303030B11E7C
:10065000372BB1123008031DB1037708B1002D30DC
:100660000C1E302B99003108F700B1013030F7072C
:1006700077080C1E392B990083103808BC00370806
:10068000BB003608BA003508B900C001BF01BE0181
:100690000A30BD0023227A08B8007908B70078082C
:1006A000B6007708B500B30BDA2A8A110A12192CA2
:1006B0002C3084008313000803196C2B0330F800DE
:1006C000F701F70B612BF80B602BE330F700F70B0A
:1006D000672B0000800B5E2B8A110A12262C030860
:1006E0001F3983008316031787114D3003139900B8
:1006F000A6309800903083129800831603170908DB
:10070000C039890003131F129F120030031788009D
:10071000831287018801890183130313A001A101BA
:10072000A701A601AB01AA01A901A8011F179F17E4
:1007300083169F1783121F14831603170908C039E5
:100740001F38890003131F129F12FF300317880000
:10075000031386000030F80083121F08C3397804A1
:100760009F001330F700F70BB32BB62B9F149F1885
:10077000B72B83161E088312A6001E08A7002708A1
:10078000AD002608AC000F28BC01BB012030BA0028
:100790008130B9007A08C0007908BF007808BE002F
:1007A0007708BD002E207A08AF007908AE007808DF
:1007B000AD007708AC007A08B3007908B200780879
:1007C000B1007708B000B701C030B6007F30B50087
:1007D0008830B400A3287A08AB007908AA0078080A
:1007E000A9007708A80020300C1EF42B99001030C7
:1007F00084002708AD002608AC006F2906300317D7
:100800008D0000308F00031005300313AC00CA21A7
:1008100020300C1E092C9900893084002B08AF0071
:100820002A08AE002908AD002808AC000230B0004C
:10083000722A0C3003178D0000308F000310043033
:100840000313AC00CA210530AC00582BB62B630053
:04400E00C22FFF3F7F
:00000001FF
;PIC16F887
;CRC=653D  CREATED="04-ene.-22 16:14"
